:020000040800F2
:100000004819002075F100085DF000085FF0000855
:1000100061F0000863F0000865F0000800000000CF
:1000200000000000000000000000000067F0000871
:1000300069F00008000000006BF000086DF0000897
:10004000F1F10008F5F10008F9F10008FDF10008F0
:1000500001F2000805F2000809F200080DF200089C
:1000600011F2000815F2000819F200081DF200084C
:1000700021F2000825F2000829F200082DF20008FC
:1000800031F2000835F2000839F200083DF20008AC
:1000900075F0000841F2000845F200080D940008D0
:1000A00049F200084DF2000851F2000855F200082C
:1000B00059F200085DF2000861F2000865F20008DC
:1000C00069F200086DF2000871F2000875F200088C
:1000D00079F20008BF9300087DF200080F92000833
:1000E00081F2000885F2000889F200088DF200080C
:1000F00091F2000895F2000899F200089DF20008BC
:10010000A1F20008A5F20008A9F20008ADF200086B
:10011000B1F20008B5F20008B9F2000853910008E6
:10012000BDF20008C1F20008C5F20008C9F20008DB
:10013000FFFFFFFFFFFFFFFFFFFFFFFFFFFFFFFFCF
:10014000FFFFFFFFFFFFFFFFFFFFFFFFFFFFFFFFBF
:10015000FFFFFFFFFFFFFFFFFFFFFFFFFFFFFFFFAF
:10016000FFFFFFFFFFFFFFFFFFFFFFFFFFFFFFFF9F
:10017000FFFFFFFFFFFFFFFFFFFFFFFFFFFFFFFF8F
:10018000FFFFFFFFFFFFFFFFFFFFFFFFFFFFFFFF7F
:10019000FFFFFFFFFFFFFFFFFFFFFFFFFFFFFFFF6F
:1001A000FFFFFFFFFFFFFFFFFFFFFFFFFFFFFFFF5F
:1001B000FFFFFFFFFFFFFFFFFFFFFFFFFFFFFFFF4F
:1001C000FFFFFFFFFFFFFFFFFFFFFFFFFFFFFFFF3F
:1001D000FFFFFFFFFFFFFFFFFFFFFFFFFFFFFFFF2F
:1001E000FFFFFFFFFFFFFFFFFFFFFFFFFFFFFFFF1F
:1001F000FFFFFFFFFFFFFFFFFFFFFFFFFFFFFFFF0F
:10020000FFFFFFFFFFFFFFFFFFFFFFFFFFFFFFFFFE
:10021000FFFFFFFFFFFFFFFFFFFFFFFFFFFFFFFFEE
:10022000FFFFFFFFFFFFFFFFFFFFFFFFFFFFFFFFDE
:10023000FFFFFFFFFFFFFFFFFFFFFFFFFFFFFFFFCE
:10024000FFFFFFFFFFFFFFFFFFFFFFFFFFFFFFFFBE
:10025000FFFFFFFFFFFFFFFFFFFFFFFFFFFFFFFFAE
:10026000FFFFFFFFFFFFFFFFFFFFFFFFFFFFFFFF9E
:10027000FFFFFFFFFFFFFFFFFFFFFFFFFFFFFFFF8E
:10028000FFFFFFFFFFFFFFFFFFFFFFFFFFFFFFFF7E
:10029000FFFFFFFFFFFFFFFFFFFFFFFFFFFFFFFF6E
:1002A000FFFFFFFFFFFFFFFFFFFFFFFFFFFFFFFF5E
:1002B000FFFFFFFFFFFFFFFFFFFFFFFFFFFFFFFF4E
:1002C000FFFFFFFFFFFFFFFFFFFFFFFFFFFFFFFF3E
:1002D000FFFFFFFFFFFFFFFFFFFFFFFFFFFFFFFF2E
:1002E000FFFFFFFFFFFFFFFFFFFFFFFFFFFFFFFF1E
:1002F000FFFFFFFFC00000000000FC001FC0FE0069
:100300000FFFFF03F800000003FFFFFFFFC0000026
:10031000000000FC001FC0FE000FFFFF03F80000FC
:100320000003FFFFFFFFC00000000000FC001FC033
:10033000FE000FFFFF03F800000003FFFFFFFFC0F8
:100340000000000000FC001FC0FE000FFFFF03F8CC
:1003500000000003FFFFFFFFC00000000000FC00E2
:100360001FC0FE000FFFFF03F800000003FFFFFFA8
:10037000FFC00000000000FC001FC0FE000FFFFFD8
:1003800003F800000003FFFFFFFFC00000000000B3
:10039000FC001FC0FE000FFFFF03F800000003FF7A
:1003A000FFFFFFC0FFFFFFFF80FFF8003F01FC0FD2
:1003B000FFFFFFFFF00001FFFFFFFFFFC0FFFFFF98
:1003C000FF80FFF8003F01FC0FFFFFFFFFF000017F
:1003D000FFFFFFFFFFC0FFFFFFFF80FFF8003F01AF
:1003E000FC0FFFFFFFFFF00001FFFFFFFFFFC0FF5B
:1003F000FFFFFF80FFF8003F01FC0FFFFFFFFFF052
:100400000001FFFFFFFFFFC0FFFFFFFF80FFF800BD
:100410003F01FC0FFFFFFFFFF00001FFFFFFFFFFA9
:10042000C0FFFFFFFF80FFF8003F01FC0FFFFFFF51
:10043000FFF00001FFFFFFFFFFC0FEFFFFFF80FF97
:10044000F8003F81FC07FFFFFBFFF04001FFFFFFCB
:10045000FFFFC0FE00001F80FFF8003FFFFFF0001D
:100460007F03FFFFC001FFFFFFFFFFC0FE00001F73
:1004700080FFF8003FFFFFF0007F03FFFFC001FF98
:10048000FFFFFFFFC0FE00001F80FFF8003FFFFFDF
:10049000F0007F03FFFFC001FFFFFFFFFFC0FE0072
:1004A000001F80FFF8003FFFFFF0007F03FFFFC049
:1004B00001FFFFFFFFFFC0FE00001F80FFF8003FAD
:1004C000FFFFF0007F03FFFFC001FFFFFFFFFFC042
:1004D000FE00001F80FFF8003FFFFFF0007F03FFDA
:1004E000FFC001FFFFFFFFFFC0FE00001F80FFF8FD
:1004F0001FFFFE00003FFF03FFFFFF8003FFFFFF22
:10050000FFC0FE00001F80FFF81FFFFE00003FFF3E
:1005100003FFFFFF0003FFFFFFFFC0FE00001F807F
:10052000FFF81FFFFE00003FFF03FFFFFF0003FF78
:10053000FFFFFFC0FE00001F80FFF81FFFFE00004E
:100540003FFF03FFFFFF0003FFFFFFFFC0FE0000B0
:100550001F80FFF81FFFFE00003FFF03FFFFFF00AB
:1005600003FFFFFFFFC0FE00001F80FFF81FFFFE1C
:1005700000003FFF03FFFFFF0003FFFFFFFFC0FE80
:1005800000001F80FC07FFFF0003FFC00000001FEA
:10059000FFFE03FFFFFFFFC0FE00001F80FC07FF00
:1005A000FF0003FFC00000000FFFFE03FFFFFFFF7F
:1005B000C0FE00001F80FC07FFFF0003FFC000001B
:1005C000000FFFFE03FFFFFFFFC0FE00001F80FCC7
:1005D00007FFFF0003FFC00000000FFFFE03FFFF47
:1005E000FFFFC0FE00001F80FC07FFFF0003FFC0ED
:1005F0000000000FFFFE03FFFFFFFFC0FE00001F13
:1006000080FC07FFFF0003FFC00000000FFFFE0398
:10061000FFFFFFFFC0FE00001F80FC07FFFF00037D
:10062000FFC00000000FFFFE03FFFFFFFFC0FFFF42
:10063000FFFF80FFF01FC07E03F0003FFFF00FC000
:10064000FFFFFFFFFFFFC0FFFFFFFF80FFF81FC09E
:10065000FE03F0007FFFF80FC0FFFFFFFFFFFFC0AA
:10066000FFFFFFFF80FFF81FC0FE03F0007FFFF8D1
:100670000FC0FFFFFFFFFFFFC0FFFFFFFF80FFF87E
:100680001FC0FE03F0007FFFF80FC0FFFFFFFFFF5A
:10069000FFC0FFFFFFFF80FFF81FC0FE03F0007FD9
:1006A000FFF80FC0FFFFFFFFFFFFC0FFFFFFFF804E
:1006B000FFF81FC0FE03F0007FFFF80FC0FFFFFF31
:1006C000FFFFFFC0FFFFFFFF80FFF81FC0FE03F02A
:1006D000007FFFF80FC0FFFFFFFFFFFFC00000001B
:1006E0000000FC07FFC000000FC07F03F80000FF00
:1006F000FFFFFFFFFFC00000000000FC07FFC0007D
:10070000000FC07F03F80000FFFFFFFFFFFFC000E6
:1007100000000000FC07FFC000000FC07F03F800CE
:1007200000FFFFFFFFFFFFC00000000000FC07FF0D
:10073000C000000FC07F03F80000FFFFFFFFFFFFB6
:10074000C00000000000FC07FFC000000FC07F03D6
:10075000F80000FFFFFFFFFFFFC00000000000FCEB
:1007600007FFC000000FC07F03F80000FFFFFFFF7E
:10077000FFFFFFFFFFFFFFFFFC07FFFF01FFF00090
:100780007FFFF80FFFFE03FFFFFFFFFFFFFFFFFFED
:10079000FFFC07FFFF01FFF0007FFFF80FFFFE03E4
:1007A000FFFFFFFFFFFFFFFFFFFFFC07FFFF01FF52
:1007B000F0007FFFF80FFFFE03FFFFFFFFFFFFFFCB
:1007C000FFFFFFFC07FFFF01FFF0007FFFF80FFFB7
:1007D000FE03FFFFFFFFFFFFFFFFFFFFFC07FFFF21
:1007E00001FFF0007FFFF80FFFFE03FFFFFFFFFF99
:1007F000FFFFFFFFFFFC07FFFF01FFF0007FFFF897
:100800000FFFFE03FFFFFFFFFFFFFFFFFFFFFC03E4
:10081000FFFE00FFE0003FFFF00FFFFE03FFFFFFC2
:10082000FFC001FFFFFF80FFF80000FE000FC000C7
:1008300000000000FE03FFFFFFFFC001FFFFFF807D
:10084000FFF80000FE000FC00000000000FE03FFE4
:10085000FFFFFFC001FFFFFF80FFF80000FE000F59
:10086000C00000000000FE03FFFFFFFFC001FFFF0C
:10087000FF80FFF80000FE000FC00000000000FE37
:1008800003FFFFFFFFC001FFFFFF80FFF80000FE36
:10089000000FC00000000000FE03FFFFFFFFC001CB
:1008A000FFFFFF80FFF80000FE000FC00000000007
:1008B00000FE03FFFFFFFFC001FFFFFF81FFF80005
:1008C000007E000FE000000000007E03FFFFFFFF3E
:1008D000FFFFF80FFFFFFFF8003F01FC0FFFFFFFD6
:1008E000FFF0000003FFFFFFFFFFFFF80FFFFFFF18
:1008F000F8003F01FC0FFFFFFFFFF0000003FFFFC8
:10090000FFFFFFFFF80FFFFFFFF8003F01FC0FFFA5
:10091000FFFFFFF0000003FFFFFFFFFFFFF80FFFE7
:10092000FFFFF8003F01FC0FFFFFFFFFF000000397
:10093000FFFFFFFFFFFFF80FFFFFFFF8003F01FC85
:100940000FFFFFFFFFF0000003FFFFFFFFFFFFF8B7
:100950000FFFFFFFF8003F01FC0FFFFFFFFFF0005C
:100960000003FFFFFFFFFFFE07F0000003F8003F5A
:10097000FFFFF00000FC000FFFFFFFFFFFFFFFFF86
:10098000FE07F0000003F8003FFFFFF00000FC004E
:100990000FFFFFFFFFFFFFFFFFFE07F0000003F860
:1009A000003FFFFFF00000FC000FFFFFFFFFFFFF15
:1009B000FFFFFE07F0000003F8003FFFFFF000001C
:1009C000FC000FFFFFFFFFFFFFFFFFFE07F000002F
:1009D00003F8003FFFFFF00000FC000FFFFFFFFFE8
:1009E000FFFFFFFFFE07F0000003F8003FFFFFF0EE
:1009F0000000FC000FFFFFFFFFFFFFFFC001F80F2B
:100A0000FFFE0007FFFFFF00001F80FC000FFFFE3E
:100A100003FFFFFFFFC001F80FFFFF0007FFFFFE0E
:100A200000003F80FC000FFFFE03FFFFFFFFC0013F
:100A3000F80FFFFF0007FFFFFE00003F80FC000FE4
:100A4000FFFE03FFFFFFFFC001F80FFFFF0007FFDE
:100A5000FFFE00003F80FC000FFFFE03FFFFFFFFD3
:100A6000C001F80FFFFF0007FFFFFE00003F80FC02
:100A7000000FFFFE03FFFFFFFFC001F80FFFFF00A5
:100A800007FFFFFE00003F80FC000FFFFE03FFFF9B
:100A9000FFFFC001F80FFFFE0007FFFFFE00001F71
:100AA00080FC000FFFFE03FFFFFFFFFFFE07F01FAC
:100AB00080FFFFFFC00003FFC07F03FFFFC001FFF7
:100AC000FFFFFFFFFFFE07F01F80FFFFFFC00003D7
:100AD000FFC07F03FFFFC001FFFFFFFFFFFFFE0717
:100AE000F01F80FFFFFFC00003FFC07F03FFFFC0B8
:100AF00001FFFFFFFFFFFFFE07F01F80FFFFFFC0AA
:100B00000003FFC07F03FFFFC001FFFFFFFFFFFFE8
:100B1000FE07F01F80FFFFFFC00003FFC07F03FF41
:100B2000FFC001FFFFFFFFFFFFFE07F01F80FFFF79
:100B3000FFC00003FFC07F03FFFFC001FFFFFFFFF7
:100B4000FFFFFE07F01F80FFFFFFC00003FFE03F35
:100B500003FFFFC001FFFFFFFFFFFFFE07F0007E66
:100B600000000000FE03FFFF800007F00001FFFF10
:100B7000FFFFFFFFFE07F0007F00000000FE03FF05
:100B8000FF800007F00001FFFFFFFFFFFFFE07F0FF
:100B9000007F00000000FE03FFFF800007F000015F
:100BA000FFFFFFFFFFFFFE07F0007F00000000FED9
:100BB00003FFFF800007F00001FFFFFFFFFFFFFEC4
:100BC00007F0007F00000000FE03FFFF800007F039
:100BD0000001FFFFFFFFFFFFFE07F0007F000000A6
:100BE00000FE03FFFF800007F00001FFFFFFFFFF93
:100BF000FFFFFFF0000003FFFFC0FE0000003FFF0B
:100C0000FFFFC07FFFFFFFFFFFFFFFFFF0000003BC
:100C1000FFFFC0FE0000007FFFFFFFC0FFFFFFFFE0
:100C2000FFFFFFFFFFF0000003FFFFC0FE0000001A
:100C30007FFFFFFFC0FFFFFFFFFFFFFFFFFFF00091
:100C40000003FFFFC0FE0000007FFFFFFFC0FFFFAB
:100C5000FFFFFFFFFFFFFFF0000003FFFFC0FE00EC
:100C600000007FFFFFFFC0FFFFFFFFFFFFFFFFFF51
:100C7000F0000003FFFFC0FE0000007FFFFFFFC089
:100C8000FFFFFFFFFFFFFFFFFFE0000003FFFFC0CC
:100C9000FF0000007FFBFFFFC0FFFFFFFFFFFFFF24
:100CA000000000007FFC07FFFFFFFFF03FFF03F89D
:100CB000003FFE03FFFFFFFFFF000000007FFC0777
:100CC000FFFFFFFFF03FFF03F8003FFE03FFFFFFC2
:100CD000FFFF000000007FFC07FFFFFFFFF03FFF6A
:100CE00003F8003FFE03FFFFFFFFFF000000007F4F
:100CF000FC07FFFFFFFFF03FFF03F8003FFE03FF8D
:100D0000FFFFFFFF000000007FFC07FFFFFFFFF079
:100D10003FFF03F8003FFE03FFFFFFFFFF0000005F
:100D2000007FFC07FFFFFFFFF03FFF03F8003FFEDF
:100D300003FFFFFFFFC07FFFF01F800007FFFF00E2
:100D4000000000000000003FFE03FFFFFFFFC0FFA8
:100D5000FFF01F800007FFFF000000000000000000
:100D60003FFE03FFFFFFFFC0FFFFF01F800007FFF4
:100D7000FF00000000000000003FFE03FFFFFFFF38
:100D8000C0FFFFF01F800007FFFF00000000000011
:100D900000003FFE03FFFFFFFFC0FFFFF01F8000CA
:100DA00007FFFF00000000000000003FFE03FFFF00
:100DB000FFFFC0FFFFF01F800007FFFF00000000E3
:100DC000000000003FFE03FFFFFFFFC0FFFFF01F1A
:100DD000800007FFFF00000000000000003FFE034E
:100DE000FFFFFFFFFFFFFFFFFFFFFC00003F01FCD5
:100DF00000007FFFFFFFFFFFFFFFFFFFFFFFFFFF81
:100E0000FFFFFFFC00003F01FC00007FFFFFFFFF32
:100E1000FFFFFFFFFFFFFFFFFFFFFFFFFC00003FA3
:100E200001FC00007FFFFFFFFFFFFFFFFFFFFFFF51
:100E3000FFFFFFFFFFFC00003F01FC00007FFFFF02
:100E4000FFFFFFFFFFFFFFFFFFFFFFFFFFFFFC00B4
:100E5000003F01FC00007FFFFFFFFFFFFFFFFFFFE0
:100E6000FFFFFFFFFFFFFFFC00003F01FC00007FD2
:100E7000FFFFFFFFFFFFFFFFFFFFC00000000001BB
:100E8000FC07E03F01FC0FC07F000000000003FFF3
:100E9000FFFFFFC00000000000FC07E03F01FC0F67
:100EA000C07F000000000003FFFFFFFFC000000044
:100EB0000000FC07E03F01FC0FC07F0000000000C5
:100EC00003FFFFFFFFC00000000000FC07E03F0140
:100ED000FC0FC07F000000000003FFFFFFFFC00009
:100EE00000000000FC07E03F01FC0FC07F00000095
:100EF000000003FFFFFFFFC00000000000FC07E050
:100F00003F01FC0FC07F000000000003FFFFFFFF58
:100F1000C00000000000FC07E03F01FC0FC07F00A4
:100F20000000000003FFFFFFFFC0FFFFFFFF80FC8A
:100F300000000000000FFFFF03FFFFFFFE03FFFFA5
:100F4000FFFFC0FFFFFFFF80FC00000000000FFF5D
:100F5000FF03FFFFFFFE03FFFFFFFFC0FFFFFFFFD9
:100F600080FC00000000000FFFFF03FFFFFFFE03F7
:100F7000FFFFFFFFC0FFFFFFFF80FC00000000003D
:100F80000FFFFF03FFFFFFFE03FFFFFFFFC0FFFF99
:100F9000FFFF80FC00000000000FFFFF03FFFFFFCA
:100FA000FE03FFFFFFFFC0FFFFFFFF80FC0000000C
:100FB00000000FFFFF03FFFFFFFE03FFFFFFFFC067
:100FC000FE00001F80FC000FC0FE00003FFF03F882
:100FD0000000FE03FFFFFFFFC0FE00001F80FC00BB
:100FE0001FC0FE00003FFF03F80000FE03FFFFFFED
:100FF000FFC0FE00001F80FC001FC0FE00003FFF7E
:1010000003F80000FE03FFFFFFFFC0FE00001F808B
:10101000FC001FC0FE00003FFF03F80000FE03FFBE
:10102000FFFFFFC0FE00001F80FC001FC0FE00008D
:101030003FFF03F80000FE03FFFFFFFFC0FE0000BC
:101040001F80FC001FC0FE00003FFF03F80000FEF1
:1010500003FFFFFFFFC0FE00001F80FC001FC0FE5B
:1010600000003FFF03F80000FE03FFFFFFFFC0FE8C
:1010700000001F80FC001FFF00F8003FFF03F80086
:1010800000FE03FFFFFFFFC0FE00001F80FC001FEB
:10109000FF01FC003FFF03F80000FE03FFFFFFFF1E
:1010A000C0FE00001F80FC001FFF01FC003FFF038B
:1010B000F80000FE03FFFFFFFFC0FE00001F80FCE2
:1010C000001FFF01FC003FFF03F80000FE03FFFFCD
:1010D000FFFFC0FE00001F80FC001FFF01FC003F5F
:1010E000FF03F80000FE03FFFFFFFFC0FE00001F2C
:1010F00080FC001FFF01FC003FFF03F80000FE031F
:10110000FFFFFFFFC0FE00001F80FC001FFF01F873
:10111000003FFF03F80000FE03FFFFFFFFC0FE00DB
:10112000001F80FFFFFFC00003FFFFFF03F8000068
:10113000FE03FFFFFFFFC0FE00001F80FFFFFFC098
:101140000003FFFFFF03F80000FE03FFFFFFFFC0E7
:10115000FE00001F80FFFFFFC00003FFFFFF03F83A
:101160000000FE03FFFFFFFFC0FE00001F80FFFF27
:10117000FFC00003FFFFFF03F80000FE03FFFFFFB7
:10118000FFC0FE00001F80FFFFFFC00003FFFFFF46
:1011900003F80000FE03FFFFFFFFC0FE00001F80FA
:1011A000FFFFFFC00003FFFFFF03F800007E03FF07
:1011B000FFFFFFC0FFFFFFFF80FFFFFFC0FFFFFF3C
:1011C000C07F03FFFFFFFE03FFFFFFFFC0FFFFFF26
:1011D000FF80FFFFFFC0FFFFFFC07F03FFFFFFFE99
:1011E00003FFFFFFFFC0FFFFFFFF80FFFFFFC0FF08
:1011F000FFFFC07F03FFFFFFFE03FFFFFFFFC0FFF6
:10120000FFFFFF80FFFFFFC0FFFFFFC07F03FFFF67
:10121000FFFE03FFFFFFFFC0FFFFFFFF80FFFFFF99
:10122000C0FFFFFFC07F03FFFFFFFE03FFFFFFFFC5
:10123000C0FFFFFFFF80FFFFFFC0FFFFFFC07F0376
:10124000FFFFFFFE03FFFFFFFFC07FFFFFFF80FFE9
:10125000FFFFC0FFFFFFE07F03FFFFFFFE03FFFF75
:10126000FFFFC00000000000FC07FFC0FFFC0FFFF5
:10127000FF000000000003FFFFFFFFC000000000B0
:1012800000FC07FFC0FFFC0FFFFF00000000000391
:10129000FFFFFFFFC00000000000FC07FFC0FFFCD5
:1012A0000FFFFF000000000003FFFFFFFFC0000072
:1012B000000000FC07FFC0FFFC0FFFFF0000000064
:1012C0000003FFFFFFFFC00000000000FC07FFC09D
:1012D000FFFC0FFFFF000000000003FFFFFFFFC047
:1012E0000000000000FC07FFC0FFFC0FFFFF000034
:1012F00000000003FFFFFFFFFFFFFFFFFFFFFFFFF7
:10130000FFFFFFFFFFFFFFFFFFFFFFFFFFFFFFFFED
:10131000FFFFFFFFFFFFFFFFFFFFFFFFFFFFFFFFDD
:10132000FFFFFFFFFFFFFFFFFFFFFFFFFFFFFFFFCD
:10133000FFFFFFFFFFFFFFFFFFFFFFFFFFFFFFFFBD
:10253000FFFFF00000000007FFFFFFFFFFFFFFFFAE
:10254000FFFFFFFFFFFFFFFFFFFFFFF000000000A6
:1025500007FFFFF00FFFFFFFFFFFFFFFFFFFFFFF82
:10256000FFFFFFFFE00000000003FFFF8001FFFF0F
:10257000FFFFFFFFFFFFFFFFFFFFFFFFFFE1FFFF89
:10258000FFFFC3FFFF0000FFFFFFFFFFFFFFFFFF95
:10259000FFFFFFFFFFFFE3FFFFFFFFC3FFFE0100A1
:1025A0007FFFFFFFFFFFFFFFFFFFFFFFFFFFFFE3D7
:1025B000020C103FC3FFFC01803FFFFFFFFFFFFF46
:1025C000FFFFFFFFFFFFFFFFE3020C183FC3FFF811
:1025D00001C01FFFFFFFFFFFFFFFFFFFFFFFFFFF28
:1025E000FFE3020C183FC3FFF001E00FFFFFFFFF06
:1025F000FFFFFFFFFFFFFFFFFFFFE1020C103FC3E4
:10260000FFF001F00FFFFFFFFFFFFFFFFFFFFFFFE6
:10261000FFFFFFE1020C103FC03FE011B807FFFFD2
:10262000FFFFFFFFFFFFFFFFFFFFFFFFE1020C10B7
:102630003FC01FE0399C07FFFFFFFFFFFFFFFFFFC9
:10264000FFFFFFFFFFE1020C103FC01FC01DB803DA
:10265000FFFFFFFFFFFFFFFFFFFFFFFFFFFFE102A5
:102660000C103FC01FC00FF003FFFFFFFFFFFFFF75
:10267000FFFFFFFFFFFFFFE3020C183FC01FC00773
:10268000E003FFFFFFFFFFFFFFFFFFFFFFFFFFFF75
:10269000E3020C183FC01FC003C003FFFFFFFFFF92
:1026A000FFFFFFFFFFFFFFFFFFE3020C183FC01F0C
:1026B000C003C003FFFFFFFFFFFFFFFFFFFFFFFFA0
:1026C000FFFFE3020C183FC01FC007E003FFFFFF3E
:1026D000FFFFFFFFFFFFFFFFFFFFFFE3020C183FBD
:1026E000C03FC00FF003FFFFFFFFFFFFFFFFFFFF33
:1026F000FFFFFFFFE1020C103FC27FC01DB803FFC8
:10270000FFFFFFFFFFFFFFFFFFFFFFFFFFE1020CE7
:10271000103FC3FFE0399C07FFFFFFFFFFFFFFFFF4
:10272000FFFFFFFFFFFFE1020C103FC3FFE011B806
:1027300007FFFFFFFFFFFFFFFFFFFFFFFFFFFFE1BF
:10274000020C103FC3FFF001F00FFFFFFFFFFFFF80
:10275000FFFFFFFFFFFFFFFFE1860C187FC3FFF0C5
:1027600001E00FFFFFFFFFFFFFFFFFFFFFFFFFFF86
:10277000FFE3FFFFFFFFC3FFF801C01FFFFFFFFFE5
:10278000FFFFFFFFFFFFFFFFFFFFE0000000000370
:10279000FFFC01803FFFFFFFFFFFFFFFFFFFFFFF89
:1027A000FFFFFFE00000000003FFFE01007FFFFFCE
:1027B000FFFFFFFFFFFFFFFFFFFFFFFFF000000035
:1027C0000007FFFF0000FFFFFFFFFFFFFFFFFFFF0E
:1027D000FFFFFFFFFFFFFFFFFFFFFFFFFFC003FF44
:1027E000FFFFFFFFFFFFFFFFFFFFFFFFFFFFFFFFF9
:1027F000FFFFFFFFFFFFF00FFFFFFFFFFFFFFFFFE8
:10280000FFFFFFFFFFFFFFFFFFFFFFFFFFFFFFFFD8
:10281000FFFFFFFFFFFFFFFFFFFFFFFFFFFFFFFFC8
:10282000FFFFFFFFFFFFFFFFFFFFFFFFFFFFFFFFB8
:10283000FFFFFFFFFFFFFFFFFFFFFFFFFFFFFFFFA8
:102DC000FC000003FFFFFFFFFFFFFFFFFFFFFFFF10
:102DD000FFFFFFFFFFFFFFFFFFE00000007FFFFF9F
:102DE000FFFFFFFFFFFFFFFFFFFFFFFFFFFFFFFFF3
:102DF000FFFE0000000007FFFFFFFFFFFFFFFFFFD8
:102E0000FFFFFFFFFFFFFFFFFFFFFC0000000003CD
:102E1000FFFFFFFFFFFFFFFFFFFFFFFFFFFFFFFFC2
:102E2000FFFFFFE000000000007FFFFFFFFFFFFF4C
:102E3000FFFFFFFFFFFFFFFFFFFFFFFFC0000FFED1
:102E400000003FFFFFFFFFFFFFFFFFFFFFFFFFFF50
:102E5000FFFFFFFFFFC007FFFFFC003FFFFFFFFF7B
:102E6000FFFFFFFFFFFFFFFFFFFFFFFFFFFFC00FA1
:102E7000FFFFFF003FFFFFFFFFFFFFFFFFFFFFFF21
:102E8000FFFFFFFFFFFFFFC0FFFFFFFFF03FFFFF60
:102E9000FFFFFFFFFFFFFFFFFFFFFFFFFFFFFFFF42
:102EA000E1FFFFFFFFF87FFFFFFFFFFFFFFFFFFFD7
:102EB000FFFFFFFFFFFFFFFFFFFFFFFFFFFFFFFF22
:102EC000FFFFFFFFFFFFFFFFFFFFFFFFFFFFFFFF12
:102ED000FFFFFFFFFFFFFFFFFFFFFFFFFFFFFFFF02
:102EE000FFFFFFFFFFFFFFFFFFFFFFFFFFFFFFFFF2
:102EF000FFFFFFFFFFFFFFFFFFFFFFFFFFFFFFFFE2
:102F0000FFFFFFFFFFFFFFBFFFFFFFFFFFFFFFFF11
:102F1000FFFFFFFFFFFFFFFFFFFFFFFFFFFFFFFCC4
:102F200007FFFFFFFFFFFFFFFFFFFFFFFFFFFFFFA9
:102F3000FFFFFFFFFFFFFFFFFC03FFFFFFFFFFFFA0
:102F4000FFFFFFFFFFFFFFFFFFFFFFFFFFFFFFFF91
:102F50000FF803FC3FFFFFFFFFFFFFFFFFFFFFFF37
:102F6000FFFFFFFFFFFFFCFFFE0FF003FC1FFFFF53
:102F7000F83FFFFFC3FFFFFC3FFFFFFF807FFFE045
:102F80003FFC03F003F00FFFFF0003FFFF00FFFF14
:102F9000F00FFFFFFF003FFFC01FFC03F003F00F27
:102FA000FFFC0000FFFF00FFFFF00FFFFFFF003FEF
:102FB000FFC00FF803F001F003FFF000003FFF0037
:102FC0007FFFE00FFFFFFF003FFFC00FF803F0019E
:102FD000F003FFF000001FFF007FFFE00FFFFFFE88
:102FE000001FFF8007F001F003F003FFC00000079F
:102FF000FE003FFFE007FFFFFC001FFF0007F0039C
:10300000F003F003FFC0000003FE003FFFE007FFF6
:10301000FFFC000FFF0003F003F003F003FF0000CC
:103020000003FE003FFFE007FFFFFC000FFF00036F
:10303000F003F003F003FF00000003FE003FFFE099
:1030400007FFFFFC000FFF0003F003F001F003FE99
:1030500000000000FE003FFFE007FFFFFC000FFF45
:103060000003F003F001F003FC00000000FE003F4D
:10307000FFE007FFFFF80007FE0001F003F003F098
:1030800003FC003FF0007E003FFFE007FFFFF00081
:1030900007FE0001F003F003F001FC003FF8007EA2
:1030A000003FFFE007FFFFF00007FC0000E003F037
:1030B00003F801F800FFFC003E003FFFE007FFFFC0
:1030C000F00003FC0000E003F003F801F000FFFC57
:1030D000003E003FFFE007FFFFF00003FC0000E0C0
:1030E00007F003F800F001FFFF003E003FFFE0079C
:1030F000FFFFE00003FC0000C007F003F800F00150
:10310000FFFF003E003FFFE007FFFFE00003FC0081
:10311000004007F003FC00F003FFFF001E003FFF2C
:10312000E007FFFFE00003F800004007F003FC00A9
:10313000F003FFFF001E003FFFE007FFFFC00C0190
:10314000F80300000FF003FC00F003FFFF801E00F7
:103150003FFFE007FFFFC00C01F00300000FF0038A
:10316000FC00E003FFFF801E003FFFE007FFFFC001
:103170001C00F00700000FF003FC00E007FFFF80D9
:103180000E003FFFE007FFFFC01E00F00780000FAA
:10319000F003FC00E007FFFFC00E003FFFE007FF69
:1031A000FF803F00F00F80000FF003FC006007FF7E
:1031B000FFC00E003FFFE007FFFF803F00F00F80E1
:1031C000000FF003FC006007FFFFC00E003FFFE0B0
:1031D00007FFFF003F00600FC0000FF003FE00601C
:1031E00007FFFFC00E003FFFE007FFFF003F00406A
:1031F0000FC0000FF003FE002007FFFF800E003F0E
:10320000FFE007FFFF003F00000FC0001FF003FEBC
:10321000002003FFFF801E003FFFE007FFFF007F4D
:1032200000001FC0001FF003FF002003FFFF801EEF
:10323000003FFFE007FFFE007F80003FC0003FF03F
:1032400003FF002003FFFF801E003FFFE007FFFE9B
:10325000007F80003FE0003FF003FF003003FFFFEE
:10326000001E003FFFE007FFFC00FFC0003FF00032
:103270003FF003FF003003FFFF003E003FFFC007A9
:10328000FFFC00FFC0003FF0003FF003FF003001F3
:10329000FFFF003E003FFFC007FFFC00FFC0003FF4
:1032A000F0003FF003FF003000FFFE003E003FFF54
:1032B000C007FFFC00FFC0003FF0003FF003FF002D
:1032C0003000FFFC003E003FFFC007FFF800FFC0DA
:1032D000007FF0003FF003FF001C007FFC003E0079
:1032E0001FFF8007FFF801FFE0007FF0003FF003C1
:1032F000FF001C003FF8007E000FFF000FFFF001F1
:10330000FFE000FFF8007FF003FF801C000FE000EB
:10331000FE0007FF000FFFF003FFF000FFF8007F43
:10332000F003FF800C0003C000FE0003FE000FFF4F
:10333000F003FFF000FFFC007FF003FF800E0000B1
:103340000001FE000060000FFFF003FFF000FFFC33
:10335000007FF003FF800F00000001FE000000006E
:103360000FFFF003FFF000FFFC00FFF003FFC00FB2
:1033700080000003FE000000003FFFF003FFF000AC
:10338000FFFC00FFF003FFC00F80000007FE0000FD
:1033900000003FFFF007FFF801FFFC00FFF003FF14
:1033A000C01FC000000FFE000000003FFFF007FF3D
:1033B000F803FFFE00FFF003FFC01FE000001FFF47
:1033C000004000007FFFF00FFFFC03FFFF00FFF055
:1033D00003FFF03FF800003FFF00F00000FFFFF0A8
:1033E0000FFFFC03FFFF01FFF003FFFCFFFC0000E9
:1033F000FFFF00F00003FFFFFF7FFFFF1FFFFFC77E
:10340000FFF003FFFFFFFF0003FFFFC1FC000FFF02
:10341000FFFFFFFFFFFFFFFFFFFFF003FFFFFFFFC7
:10342000C00FFFFFC3FF003FFFFFFFFFFFFFFFFFD6
:10343000FFFFFFF003FFFFFFFFFFFFFFFFFFFFFFA7
:10344000FFFFFFFFFFFFFFFFFFFFFFFFF003FFFF97
:10345000FFFFFFFFFFFFFFFFFFFFFFFFFFFFFFFF7C
:10346000FFFFFFFFFFF003FFFFFFFFFFFFFFFFFF77
:10347000FFFFFFFFFFFFFFFFFFFFFFFFFFFFF00367
:10348000FFFFFFFFFFFFFFFFFFFFFFFFFFFFFFFF4C
:10349000FFFFFFFFFC0FFFF003FFFE07FFFFFFFF33
:1034A000FFFFFFFFFFFFFFFFFFFFFFFFFFF807FF2B
:1034B000F003FFFC03FFFFFFFFFFFFFFFFFFFFFF26
:1034C000FFFFFFFFFFFFF003FFF003FFF003FFFF2D
:1034D000FFFFFFFFFFFFFFFFFFFFFFFFFFFFFFF00B
:1034E00003FFF003FFF001FFFFFFFFE00FFFCFFC42
:1034F000FFFFFFFFFFFFFFFFE003FFF003FFF00010
:10350000FFFFFFBF8007FFE3FC7FFFFFFFFFFFFF21
:10351000FFE003FFF003FFF000FFFFFF9F1F87FDA9
:10352000F1F07FFFFFFFFFFFFFFFC003FFF003FF8E
:10353000F000FFFFFF0E7F8FF8F8F07FFFFFFFFF27
:10354000FFFFFFE003FFF003FFF000FFFFFF8CFF32
:103550009FF87C7E7FFFFFFFFFFFFF3FE003FFF848
:1035600003FFF001FFCFFFCCE33FF83E7E7FFFFF7C
:10357000FFFFFFFE1FE003FFF803FFF001FF87FFDF
:10358000CDC3F8FC1A3E7FFFFFFFFFFFFC0FF007E3
:10359000FFFC07FFFC03FF03FFFFC7F0FCC13E7FFA
:1035A000FFFFFFFFFFFC0FF00FFFFE0FFFFC03FF0D
:1035B00003FFF01F21FCE31E7FFFFFFFFFFFFC075F
:1035C000FCFFFFFFFFFFFF0FFE03FFF8002FFEE3EE
:1035D000827FFFFFFFFFFFFC07FFFFFFFFFFFFFFF3
:1035E000FFFE03FFFFC83FFE7F827FFFFFFFFFFF5D
:1035F000FE03FFFFFFFFFFFFFFFFFC07FFFECC7F87
:10360000FE039E7FFFFFFFFFFFFE01FFFFFFFFFFA7
:10361000FFFFFFF80FFFFC02FFFE439E7FFFFFFF4F
:10362000FFFFFF001FFFFFFFFFFFFFFF800FFFFCFB
:10363000C07FFE739E7FFFFFFFFFFFFF801FFFFF26
:10364000FFFFFFFFFF800FFFF9CE7FFE31827FFF7C
:10365000FFFFFFFFFFC03FFFFFFFFFFFFFFF803FB8
:10366000FFF9063FFE099E7FFFFFFFFFFFFFC03F00
:103670008FFFFFFFFFFE3F803FFFF1C13FFE799EBE
:103680007FFFFFFFFFFFFFF03C007FFFFFFFE00732
:10369000C0FFFFF00F1FFC799E7FFFFFFFFFFFFFC2
:1036A000F81C001FFFFFFFC003C1FFFFFF001FFC4E
:1036B000009E7FFFFFFFFFFFFFF8180003FFFFFCE6
:1036C000000101FFFFFFC83FFFE1003FFFFFFFFFD9
:1036D000FFFFF8100000FFFFF0000001FFFFFC0FEC
:1036E000FFFFFFF87FFFFFFFFFFFFFF80000000173
:1036F0003C00000003FFFFFC03FFFFE3FFFFFFFFB1
:10370000FFFFFFFFF800300000000001C003FFFFD3
:10371000FF80FFFFC3FFFFFFFFFFFFFFFFFC003F36
:10372000000000000FC003FFFFFFCFFFFFC7FFFF38
:10373000FFFFFFFFFFFFFC007F800000001FE00392
:10374000FFFFFF8FFFFFFFFFFFFFFFFFFFFFFFFEFA
:1037500001FFF0000000FFF007FFFFFF9FFFFFFFEA
:10376000FFFFFFFFFFFFFFFFFF03FFFE000007FF5C
:10377000FC0FFFFFFFFFFFFFFFFFFFFFFFFFFFFF4C
:10378000FFFFFFFFFFFFFFFFFFFFFFFFFFFFFFFF49
:10379000FFFFFFFFFFFFFFFFFFFFFFFFFFFFFFFF39
:1037A000FFFFFFFFFFFFFFFFFFFFFFFFFFFFFFFF29
:1037B000FFFFFFFFFFFFFFFFFFFFFFFFFFFFFFFF19
:1062D00000000000000000002DE9F04F80460FF2A2
:1062E0003060A5B015461E46D0E90023CDE9122343
:1062F000002004910D900DF1500A6FF0004900E06C
:1063000065190020ADF8020012AB4FF0FF322946AC
:106310000DF1020001F093F80446012C04DA28780C
:10632000441EA441E443E40FBDF8020025280CBF3D
:10633000A4F1010BA346BBF1010F0EDB2F4617F8AA
:10634000011B0498C0470028049000F0F3800D98CA
:10635000401CBBF1010B0D90F1D1BDF802002528C6
:1063600007D100200790089009900A900B900C909C
:1063700005E00028C4D10D98D2E240F0010015F8E4
:10638000011F2029F9D023290DD02B2904D02D2934
:1063900006D030290AD00CE040F0020080B2EEE7CF
:1063A00040F00400FAE740F00800F7E740F0100082
:1063B000F4E72A290ED13168316051F8042B31609D
:1063C000002A0F9204D5514240F004000F9180B290
:1063D0006D1C11E000210F9109E00F99494505D08E
:1063E00001EB810302EB430130390F916D1C2A78D8
:1063F000A2F130010A29F0D329782E2903D04FF0D9
:10640000FF310E911DE015F8011F2A2907D13168CF
:1064100031606D1C51F8042B31600E9211E00021A7
:106420000E9109E00E99494505D001EB810302EB7D
:10643000430130390E916D1C2A78A2F130010A29EE
:10644000F0D3ADF840000FF2D040297801F042F8C7
:1064500008B115F8010B8DF842009DF8420068283C
:1064600002BF29786829622005D06C2804BF2878EB
:106470006C2803D171208DF842006D1C14A8069081
:1064800015F8014BB4F125002AD01C3800F0D48057
:10649000001F022840F2D080133800F0F580093840
:1064A00000F0CA80801E00F05C81401E00F0358143
:1064B000401E022840F2C080001F00F02E81401FC5
:1064C00000F08B80401E00F0DF80401E35D0C01EE3
:1064D0000BD0801E00F0D880C01E00F0D58063E194
:1064E00025208DF85000012067E19DF842006C28BE
:1064F0003068306014D050F8047B306005970E9CF3
:10650000002C04D5384600F0F1FF044606E0224690
:106510000021384601F006F800B1C41B08944DE193
:1065200050F8042B306002A9404600F033FA0028EE
:1065300040F144814FF0FF30F2E1316831603C249A
:1065400051F8040B31600021CDE9020114A8059037
:10655000DDE90201069F11B908B90E9AB2B102062F
:10656000120FA0EB02123032D2B2631E3A2AA8BF39
:1065700027320009DA5540EA0170090908BF0028EE
:106580001C4603D0059AE3199A42E8D3E019059016
:10659000C4F13C010E980891814209DA401A0A9030
:1065A0004FF6EF71BDF840000840ADF8400005E13E
:1065B000002840F103819DF8400000F014001028ED
:1065C00040F0FC800F98079A801A0A9A801A441AA1
:1065D000012CC0F2F3800A94F0E09DF8420062289A
:1065E0001AD0682806D06A280CD06C281CD07128D4
:1065F00008D019E03068306050F8041B30600D9806
:106600000880DBE03068306050F8042B30600D9873
:10661000C117C2E90001D1E03068306050F8041BB6
:1066200030600D980870C9E03068306050F8041B85
:1066300030600D980860C1E03068C01D20F007028E
:106640003260D2E9000108323260CDE9020100294E
:1066500002D507982D210AE0BDF84000810702D538
:1066600007982B2103E0C00705D50798202100F8E3
:106670000A10401C079014A8079908180590214695
:1066800002A800F091FB99E09DF842006C280DD023
:10669000712818BF6A2809D13068C01D20F0070290
:1066A0003260D2E900010832326005E031683160C1
:1066B00051F8040B31600021CDE902019DF8420040
:1066C000682803D1DDE9020180B20BE0622803D122
:1066D000DDE90201C0B205E0742818BF7A2804D1B0
:1066E000DDE902010021CDE902019DF8400000072B
:1066F0002ED5DDE90201002908BF002828D044F08A
:106700002000782824D10798302100F80A10401C76
:10671000411C079100F80A401AE09DF842003146FA
:1067200000F001F9CDE90201002902DA07982D21D4
:106730000AE0BDF84000810702D507982B2103E04D
:10674000C00705D50798202100F80A10401C0790C3
:1067500014A8079908180590214602A800F0A0FA8D
:106760002CE09DF842006C2809D001200790306889
:10677000306050F8041B30608DF850101EE0306817
:10678000306001AA50F8041B3060ADF804100020FE
:10679000ADF8060002A94FF0FF300E90404600F021
:1067A000F9F800280AD5C5E625208DF8500001200B
:1067B00007901CB18AF80140022007900F980799B2
:1067C000401A0A99401A0899401A0B99401A0999D7
:1067D000401A0C99441A9DF84000400710D420201C
:1067E000012C8DF800000BDB274601236A4602A925
:1067F000404600F000FE00287FF49CAE7F1EF4D1DE
:10680000DDF81CB0BBF1000F14AF0DD017F8011B61
:106810000498C047002804903FF48CAE0D98401CAB
:10682000BBF1010B0D90F1D130208DF800000A9FD3
:10683000012F0ADB01236A4602A9404600F0DBFD76
:1068400000287FF477AE7F1EF4D1DDF820B0059FDD
:10685000BBF1000F0DD017F8011B0498C0470028AA
:1068600004903FF467AE0D98401CBBF1010B0D90F6
:10687000F1D130208DF800000B9F012F0ADB01239E
:106880006A4602A9404600F0B6FD00287FF452AEE9
:106890007F1EF4D105980899DDF824B00F18BBF1DC
:1068A000000F0DD017F8011B0498C0470028049072
:1068B0003FF440AE0D98401CBBF1010B0D90F1D19F
:1068C00030208DF800000C9F012F0ADB01236A465F
:1068D00002A9404600F08FFD00287FF42BAE7F1EFA
:1068E000F4D19DF8400040077FF50BAD2020012C2E
:1068F0008DF80000FFF605AD01236A4602A9404667
:1069000000F079FD00287FF415AE641EF4D1F8E4A0
:106910000000000000000000686A6C747A4C0000FF
:1069200025B0BDE8F08F622826D068281DD06A28DF
:1069300008D06C2827D0712804D0742823D07A2856
:106940000CD020E00868C01D20F007000860D0E9E6
:106950000023083008601946104670470A680A602C
:1069600052F8040B0A60002170470A680A6052F866
:10697000040B0A6000B20BE00A680A6052F8040BCC
:106980000A6040B204E00A680A6052F8040B0A6028
:10699000C11770472DE9F44F0D4694B0D5F830A0DB
:1069A000BAF1000F804648BF6FF0004A00F0E6FDE4
:1069B000696B401801900FF66C20D0E90023CDE9F7
:1069C000022395F83800400702D40198412805D2E7
:1069D00040200DF110090190002609E000F0D4FDDF
:1069E0005FEA0009F8D14FF0FF3056E1AAEB040A44
:1069F000BAF1010FC0F2CE801498018802AA0DF1FD
:106A0000010000F019FE0028044600F1DE80149811
:106A1000008810B9641E00F1D880A245C0F2BA8087
:106A2000686901992218914280F0A2806E63404209
:106A3000296A401AA969401A696A401AE969401A24
:106A4000A96A461A95F83800400710D42020012E74
:106A50008DF800000BDB374601236A462946404685
:106A600000F0C9FC002840F0B0807F1EF4D1D5F8BA
:106A700014B0BBF1000F4F460DD017F8011BA868EA
:106A8000C0470028A86000F0A080E86A401CBBF165
:106A9000010BE862F1D130208DF800002F6A012F40
:106AA0000ADB01236A462946404600F0A4FC002880
:106AB00040F08B807F1EF4D1D5F818B0EF68BBF1A1
:106AC000000F0CD017F8011BA868C0470028A86069
:106AD0007BD0E86A401CBBF1010BE862F2D13020A8
:106AE0008DF800006F6A012F09DB01236A462946F1
:106AF000404600F080FC002867D17F1EF5D1E86891
:106B0000A969D5F81CB00F18BBF1000F0CD017F80D
:106B1000011BA868C0470028A86056D0E86A401C3E
:106B2000BBF1010BE862F2D130208DF80000AF6AB2
:106B3000012F09DB01236A462946404600F05BFC31
:106B4000002842D17F1EF5D195F8380040070DD5B9
:106B50002020012E8DF8000008DB01236A4629461B
:106B6000404600F048FC80BB761EF6D100266E61E0
:106B7000224668690DF10101484400F06BFD686927
:106B8000201868611498801C1490801E00880028CA
:106B90007FF42CAF686B6969401A296A401AA969A9
:106BA000401A696A401AE969401AA96AA0EB010A09
:106BB00095F83800400710D4BAF1010F0DDB5446A8
:106BC000A8682021C047A86010B94FF0FF365DE0EB
:106BD000E86A401C641EE862F2D16B694A462946A5
:106BE000404600F008FC0028EFD12C6A012C0ADB9B
:106BF000A8683021C0470028A860E6D0E86A401C99
:106C0000641EE862F4D1AB69EA682946404600F0A8
:106C1000F2FB0028D9D16C6A012C0ADBA86830216C
:106C2000C0470028A860D0D0E86A401C641EE86213
:106C3000F4D1E868A969EB690A182946404600F0D2
:106C4000DAFB0028C1D1AC6A012C0ADBA86830212C
:106C5000C0470028A860B8D0E86A401C641EE862FB
:106C6000F4D195F8380040070ED5BAF1010F0BDBCF
:106C7000A8682021C0470028A860A6D0E86A401C68
:106C8000BAF1010AE862F3D16E616E6304A881452E
:106C90001CBF484600F01AFD304615B0BDE8F08F25
:106CA0002DE9FA4E05460A462F696F2A08BF0824C7
:106CB00005D041F02000782814BF0A2410243C2677
:106CC000D5E90001642A18BF692A81468A4605D1A0
:106CD000002903DAD9F100096AEB4A0ABAF1000F78
:106CE00008BFB9F1000F0CD1286B50B9082C36D170
:106CF00095F83800000732D530203B2687F83B0056
:106D00002DE0E31748465146224600F01FFDA4FB44
:106D10000023A9EB02023032D2B2A6F1010B3A2ACB
:106D20005E4603DB9DF80030513B9A180BF80720B4
:106D300081465FEA010A08BFB9F1000F03D0E86895
:106D4000F1198842DDD3082C09D195F838000007E5
:106D500005D5F05D302802D0761E3020F055C6F102
:106D60003C00A861F119E960296B884208DA081A29
:106D700028624FF6EF71288F08402887BDE8F38E10
:106D800000290ED595F8381001F01401102908D10A
:106D9000696B6A69891A2A6A891A0E1A012EA8BFB4
:106DA0002E62BDE8F38E00002DE9F24F04468EB04E
:106DB000D4E90001CDE9020104AF9DF8380040F0AC
:106DC000200BBBF1610F0AD0206B002848BF0620C2
:106DD00004D408BFBBF1670F01D1012020636168B3
:106DE000C1F30A5040F2FF7290421CD1080304BF65
:106DF0002068002809D10320A0619DF8380061387F
:106E00001A2836D30FF2306108E00320A0619DF804
:106E1000380061381A2829D30FF21461E068032280
:106E200000F018FCBEE1012816DA204600F005FD4E
:106E3000012811DB00250020BBF1610F20D1E168A2
:106E4000302201F8012B4A1CE2609DF83820612AAB
:106E50000CBF782258220FE0626840F2FE3161F3E5
:106E60001E52451A62604FF0FF30E5E70FF2BC5149
:106E7000D4E70FF2C051D1E70A706169891C6161E2
:106E800010B90026002584E1BBF1610F40F0988025
:106E9000206B00284CBF2126461CD4E900ABDDE95D
:106EA00002010022002300F0E9FC36B23ABF8BF069
:106EB0000040CDE902A0CDE902AB06F101082D1F8B
:106EC000B8F1010F8DF810200DF1110736DBDDE967
:106ED00002010022002300F0E9FC2FD21C2102A8AD
:106EE00000F0FCFCDDE9020100F07EFDA8F10708DE
:106EF000B8F1010F814609DB00F0A2FD02460B4606
:106F0000DDE9020100F0B4FDCDE90201F81D072121
:106F100005E009F00F0200F8012D4FEA2919B9F137
:106F2000010F01DB491EF4D5491E5CBF002200F8A9
:106F3000012DF9D5C71DB8F1010FC8DA0DF1110007
:106F4000391AB142B8BF0E4636B230000DF1110702
:106F50002FD4884206DA04A9411849780829A8BF25
:106F60000F2100DA002104AA821800E0761E12F830
:106F70000139401E8B42F9D00F2904D104A94118D0
:106F80004A78521C4A70002802D504AF761C2D1D89
:106F900036B2701E0DD4C1190A783032D2B23A2AF4
:106FA00003DB9DF838303A3B9A18401E01F801295E
:106FB000F2D5206B002840F1EC80701E2063E8E0E1
:106FC000DDE902010022002300F058FC3CBF81F003
:106FD0000041CDE902012DB247F2975068434B4979
:106FE000DFF82C9190FBF1F52DB2C5F1070ABAF14B
:106FF000010F90461CDBDDE902675FEACA7007D526
:1070000042464B463046394600F0F2FD06460F46F2
:107010004046494642464B464FEA6A0A00F0E8FDC0
:10702000BAF1000F80468946E7D1CDE9026724E036
:10703000CAF1000A0026374F14E05FEACA7007D58C
:1070400042464B463046394600F0D2FD06460F46D2
:107050004046494642464B4600F0CAFD4FEA6A0A9E
:1070600080468946BAF1000FE7D1DDE902013246D8
:107070003B4600F08FFECDE90201BBF1660F0CBF6D
:1070800005F10A000620216BDFF88C904618142EBB
:10709000A8BF132630208DF810000DF11107012E26
:1070A0003CDBDDE9020100F0B5FC07F10801042238
:1070B0000A23B0FBF3F303EB8307A0EB4700303068
:1070C00001F8010C0A20B3FBF0F000EB8007A3EB02
:1070D00047033033521E01F8023DE9D1083E012E2C
:1070E00001F10807DBDBDDE9020100F093FC00F0B1
:1070F000B1FC02460B46DDE9020100F0B9FC0022BA
:107100004B4600F075FDCDE90201CAE7A0860100FB
:10711000000024400000F03F84D797410DF111009A
:10712000381A0DF1110702E0401E6D1E7F1C3978E0
:107130003029F9D0BBF1660F02D12DB2691C04E0F1
:10714000BBF1650F0CBF01210021226B8E1836B2F6
:10715000B042B8BF064636B231001AD4814204DAD2
:10716000C85D3528A8BF392000DA3020CA19521E60
:1071700000E0761E12F80139491E8342F9D0392801
:1071800002D1C85D401CC855002902D57F1E761C5F
:107190006D1C2DB29DF83810009533B23A4620464A
:1071A00000F003F80FB0BDE8F08F2DE9F04786B08E
:1071B00006468A4690461D4600F035FF012D406A7E
:1071C000376B90F8009002DA01250FF270284AF030
:1071D0002000BDF93840662808BF641C12D067281B
:1071E00076D114F1040F79DBBC4277DA96F83800D7
:1071F000641C000702D4BD42B8BF2F4624B23F1B17
:1072000048BF002724B2F068B169012C21DA4A1C7A
:1072100030230B54012F03DA96F83810090702D5F2
:1072200002F80090521CB261E742B8BF7C4224B21F
:107230006142E7197162AF42B8BF3D46B3692DB2F2
:10724000F5612A464146181800F004FA781BB0622E
:10725000BAE00818A54216DA2A46414600F0FAF9C3
:10726000B1696918601B012FB161706203DA96F889
:107270003800000705D5F06801F80090F069401C5F
:10728000F061B762A0E02246414600F0E3F9B06940
:1072900020182D1B012F03DA96F83810090703D5A3
:1072A000F16800F80190401C2DB2B061AF42B8BF48
:1072B0003D46F068B3692DB22A4604EB0801181860
:1072C00000F0C8F9B0692818B061781B70627BE0E3
:1072D000BAF1610F14D14FF0700A16E0BD4204DA22
:1072E00096F83810090758BF2F467F1E48BF002761
:1072F000BAF1670F14BF4FF0450A4FF0650A04E07A
:10730000BAF1410F08BF4FF0500AB169F0684A1C4A
:10731000B261012F18F8013B0B5403DA96F83810CC
:10732000090715D5531CB36102F80090012F0FDB3C
:107330006D1E2DB2AF42B8BF3D462DB22A46414622
:10734000181800F087F9B0692818B061781B7062CE
:10735000F068B1690918200081F800A004D42B203E
:10736000487001F1020804E02D224A7001F1020880
:107370006442002502AF08E00A22684600F06CFE75
:10738000019807F8010B6D1C009C21B20129F3DA6A
:10739000022D06DA4AF02000652804BF302008F8E4
:1073A000010B4DB9302008F8010B07E06D1E02A853
:1073B000285C303008F8010B012DF7DAF068B1696C
:1073C0000818A8EB0000F06196F8380000F01400EF
:1073D00010280DD17069B1690818716A0818F1692F
:1073E0000818B16A0818716B8842BCBF081A30626D
:1073F00006B0BDE8F087F8B504460D4616461F46B0
:10740000002077B116F8011BA868A047A86030B12A
:10741000E86A401CE86200207F1EF3D1F2BD4FF005
:10742000FF30F2BD00000000000000006E616E0041
:107430004E414E00696E6600494E46003000F8B578
:1074400004460D4616461F4600F00EFE3B463246E9
:107450002946204601B0BDE8F04000F01CBEF0B463
:10746000016844688368091801EB5402E40748BFC7
:107470004B440C3091422BD011F8014B14F0030512
:1074800004BF11F8015BED1C26090F2E07D111F87E
:10749000016B0F3603E011F8017B03F8017B6D1ED1
:1074A000F9D1002EE6D0A40811F8015B04F0030422
:1074B000032C08BF11F8014B05EB04241C1BB51C61
:1074C000D8D014F8016B03F8016B6D1EF9D1D1E728
:1074D000F0BC70470278C9B28A421AB11CBF10F8DA
:1074E000012FF9E718BF00207047010200F10103E6
:1074F000810704D010F8011B89B18107FAD1026815
:10750000B2F10131914311F0803F04BF50F8042FD4
:10751000F6E710F8011B11B110F8011BFBE7C01AC8
:1075200070470102C9B2830706D0521E22D310F859
:10753000013B9942F7D11FE0083A13D302F104024C
:1075400041EA012141EA014150F8043B121F21BFE9
:107550004B40A3F1013C2CEA030C1CF0803FF3D01C
:10756000C9B2001F083210F8013B521E28BF91EA31
:10757000030FF8D818BF0120401E704780B500F0F7
:1075800073FD012002BD000070B5054605F10F0036
:10759000C408C046C046E400A54232D2082C04D23A
:1075A000082402E0083000F091F822480268110037
:1075B0000CD1011D0A6802B31368A34238BF111D24
:1075C000F8D310E01D68A5420DD2191D0B68002BE1
:1075D000F8D11268011D00E0191D0B6893420CD010
:1075E0001D68A542F8D361B10D682A68A2F10803AD
:1075F000A3420AD26A680A600FE000F06FFD00281B
:10760000D0D1C046C046002070BD63190B60121B6C
:107610006E685E600B681A602C60096800291DBFE7
:107620004A68002A091D00210160C046C04605F1D4
:10763000080070BD5022002070B504460D46164665
:1076400000F012FD324629462046BDE8704000F0A9
:1076500015BD000062B38B0708D0521E11F8013B24
:1076600000F8013B00F024808B07F6D1830740F03F
:10767000208000BF103A07D330B4B1E83810103A78
:10768000A0E83810F9D230BC530724BFB1E8081085
:10769000A0E8081044BF51F8043B40F8043BD2076F
:1076A00024BF31F8022B20F8022B44BF0B78037063
:1076B0007047083A07D3B1E80810083A40F8043B8D
:1076C00040F804CBF7D25307E4E7000000B9704755
:1076D00038B5A0F108042068082833D310F0070F4C
:1076E00030D1C046C0461848416809B18C4203D227
:1076F0006160446017E019464B680BB1A342FAD3AE
:107700000B685D18AC421BD3A54204D12268D21885
:107710000A600C4607E04A681AB123681B199A42AE
:107720000ED362604C60616851B1226813198B42BC
:1077300006D10023036008688018206048686060F4
:10774000C046C04631BD0000502200201B4213D16C
:10775000094236D12AB18446B0FBF2F002FB10C2D6
:10776000704700F0D1BCFCD30022002370470B000F
:107770000200002100207047904271EB030CF6D309
:1077800070B5B1FA81F4B3FA83F52C1BA340C4F1B0
:10779000200532FA05F63343A2405FF00046E6408A
:1077A00002E05B085FEA3202841A71EB030524BF32
:1077B000204629467641F4D302000B003000002118
:1077C00070BD012ACFD970B5140C20D0B1FA81F464
:1077D000B2FA82F5C4F120046419B4F12006D6D3BC
:1077E000B2405FF00044F440002502E052085FEA36
:1077F0003303C61A71EB020E24BF30467146644152
:107800006D41F3D302000B002000290070BD0C462F
:10781000B1FBF2F102FB11452D0445EA1045B5FB21
:10782000F2F402FB145580B240EA0545B5FBF2F0D4
:1078300002FB105240EA044070BD30B4436803F0CC
:10784000004201211B031B0B436004BF0368002B94
:1078500008D10DE00368DD0F45EA440444605B0095
:107860000360491E4468E302F4D523031B0B436005
:1078700043681A434260084630BC70474FF4001C0E
:107880001CEB410F94BF1CEB430F09E041EA030CD2
:1078900050EA4C0C52EA0C0C03D2994208BF9042B9
:1078A000704714BF8B428242704700004FF4001CA7
:1078B0001CEB410F94BF1CEB430F09E041EA030CA2
:1078C00050EA4C0C52EA0C0C03D28B4208BF8242A5
:1078D000704714BF994290427047000070B504464B
:1078E0000D466068C0F30A5040F2FF71884207D12C
:1078F0006068000304BF2068002817D0022070BD14
:1079000020B92046FFF799FF012866DA012D0FDB29
:1079100040F2FF71091A8D420AD36068002847BF00
:1079200000202F4900202F49C4E90001012070BD2B
:107930004142A942616806DA6FF31E51401941EADB
:107940000050606040E0401E63684519012205F167
:10795000350062F31F53352801F00041636003D303
:1079600061600020206070BD002015F11F0F04DA57
:10797000206823600022203562606A4212D0401ED7
:1079800025688041C2F12003C0439D4045EAD07084
:1079900025686668D54006FA03F32B4323606368C5
:1079A000D340636062680A43B0F1004F626003D85D
:1079B0000DD12078C0070AD52068401C20602068BF
:1079C00028B96068401C60604FF0FF3070BD60688F
:1079D000884204BF20680028F6D1002070BD00BF97
:1079E0000000F0FF0000F07FF446400D40EAC120A7
:1079F000490006D200F014F8004248BF6FF0004082
:107A0000604700F00DF84FF0004188428CBF0846F7
:107A100040426047400D40EAC120490080F00D809F
:107A200040F00040490DA1F58061491C05D4D1F119
:107A30001F0154BFC840C01770474FF00000704787
:107A4000010040F10980F446404200F005F851F091
:107A500000416047010000BF09D0B0FA80F18840C2
:107A6000C91CC1F58461090501EBD02140057047AF
:107A7000F0B44FF0004591EA030F44BF6B4000F0B3
:107A800045BB00BF841A71EB030604D26E40001B95
:107A9000B141121973414FF4001C1CEB410F34BF6C
:107AA0007CEB430684E00C0DA4EB1356362E7DDCF4
:107AB000012E43DC45EAC32343EA525312BFD202EC
:107AC00092025B08240545EAC12141EA5051D2EBFC
:107AD000C020994125D407D1B0FA80F610FA06F1FA
:107AE00064D00020203608E0B1FA81F6B140C6F13A
:107AF000200220FA02F21143B0404FEAF474B4EBD2
:107B0000465434F001064FEA74040AD8D6F500163C
:107B1000760D04F00044F04061FA06F25040F14066
:107B20004840C00A40EA415021F0004128BF5FEAC6
:107B3000500550F1000044EBD12137E045EAC32362
:107B4000DB0A45EAC121C90AB6F120050EDD42EA89
:107B50000242120CC5F1200603FA06F6EB4042EA97
:107B600006056D42984161F100010DE062FA06F5EB
:107B7000F240554063FA06FC82EA0C02F3405A4098
:107B80006D42904161EB030111F4801F05D1641E29
:107B9000620502D06D004041494121F48011430843
:107BA00075F1004350F1000041EB0451F0BC704707
:107BB0001CEB410F15D223F0004352EA43060BD0D1
:107BC0004FEA4C0CBCEB410F04D80C0D661E342E52
:107BD000B7DDEBE7801A994150EA410608BF002162
:107BE000E4E708BF1CEB430F28BF6FF00001DDE79F
:107BF000B0B581EA030C0CF0004C40F2FF7515EAB9
:107C000011541DBF15EA1357AC42AF4239E0E419D5
:107C100023EA455343F48013C90241F0004141EA8D
:107C2000505EC7021100A7FB020200284FF00000BF
:107C3000EEFB01204FF00001E3FB072118BF42F0EB
:107C40000102401800214941E3FB0E01A4F58064C4
:107C50000F0302D252004041494154F101046CDD4E
:107C6000470872F1004250F1000051EB0451A1F5B8
:107C700080115CBF41EA0C01B0BD4CEA0551002007
:107C8000B0BD05EA1357AC4214BFAF4241E050EA21
:107C9000410E1CBF52EA430E02E061460020B0BD17
:107CA00024423C441BD15FEA070EF6D0090302BF11
:107CB00001460020AEF1140EB1FA81F7AEEB0704D5
:107CC00001FA07FE0C37C7F1200100FA07F7C84098
:107CD0004EEA000E23EA455343F48013A2E733F043
:107CE0000043B3FA83F704BFB2FA82FE77440B3F36
:107CF000E41BB7F1200E2FBF02FA0EF3BB40C7F111
:107D0000200E22FA0EFE38BF43EA0E03BA40641C6E
:107D100082E750EA410E14BF52EA430E6FF00001B1
:107D20004FF4001717EB430F8ABF194617EB410FAB
:107D3000B5E74CEA05510020B0BDD4F10104B4F11F
:107D400020070FDAC4F12007520828BF42F00102D1
:107D500010FA07F501FA07F7E1BF2A43E04038437C
:107D6000E1400FE0352C98DCC7F1200452EA4002D4
:107D700020FA07F218BF42F0010231FA07F0A140E1
:107D80000A43002172F1004250F1000051EB0C0156
:107D9000B0BD00002DE9F04140F2FF7581EA030C0F
:107DA0000CF0004C15EA11541DBF15EA1357AC42F4
:107DB000AF42E9E0BC41C1F31301C3F31303801ADE
:107DC000994143F4801304D2641E40004941801855
:107DD0005941C90241EA5051B1FBF3F603FB1611B8
:107DE000A2FB0675D7EBC020A94102D2761E8018EF
:107DF0005941C90241EA5051B1FBF3FE03FB1E1188
:107E0000A2FB0E75D7EBC020A94103D2AEF1010E43
:107E100080185941890241EA9051760546EA8E2E32
:107E2000B1FBF3F603FB1611A2FB0675D7EB80201E
:107E3000A94102D2761E80185941C90241EA505127
:107E40004EEA060EB1FBF3F603FB1611A2FB067514
:107E5000D7EBC020A94102D2761E80185941C90231
:107E600041EA5051B1FBF3F703FB1711A2FB0735B1
:107E7000D3EBC020A94167F100070CBF004247F0D7
:107E8000010766F3D5274FEA1E31B80814F5806460
:107E900014DDBD0775F1004250EB0E5051EB04515B
:107EA00011F5801F5CBF41EA0C01BDE8F0814CF088
:107EB0007F6141F0E0410020BDE8F081BD076D0821
:107EC00040EA0E5041F48011D4F10104B4F12006CF
:107ED0000ADAC4F120060200E04001FA06F3E140AC
:107EE0001843B24015430EE0342C14DCC6F12004D4
:107EF00045EA40056D0820FA06F2154321FA06F01E
:107F0000A1400D43002175F1004250F1000051EBFA
:107F10000C01BDE8F08100205FEA0C01BDE8F081B2
:107F2000CFB992185B41B3FA83F704BFB2FA82F675
:107F3000BF190B3FB7F120062FBF02FA06F3BB4073
:107F4000C7F1200622FA06F638BF3343BA401CB107
:107F5000E419641E2FE77F4231F00041B1FA81F449
:107F600004BFB0FA80F6A4190B3CB4F120062FBF71
:107F700000FA06F1A140C4F1200620FA06F638BF47
:107F80003143A0403C1B16E7AC421ABF05EA135729
:107F9000AF4214E050EA41061CBF52EA4306BFE775
:107FA00050EA4107304661461CBF41EA0551BDE831
:107FB000F08152EA430C08BFC143BDE8F0810020C4
:107FC0004FF4001616EB410F98BF16EB430F08BF96
:107FD00016EB410F24BFC14305E016EB430F0CBF66
:107FE00061464CEA0551BDE8F081000080B51348B8
:107FF00000F0F6F80FF24C020FF244010160426209
:1080000041600FF24402826381600FF24402C1605A
:108010000161416181618162C16201634163C26347
:108020000164416401BD10B5044800F0D9F804466C
:10803000206808B9FFF7DAFF204610BD4408002089
:10804000000000002E00000066616C7365000000F7
:10805000747275650000000091FBF2F303FB1211CE
:10806000C0E900317047000080B5DFF80C0000F077
:10807000B7F8806902BD0000D408002030B430B9E0
:108080000FF24800D0E90045C2E900451BE001704D
:10809000012030BC704730B431B90FF23800D0E95C
:1080A0000045C3E900450EE01AB930BC6FF001008D
:1080B000704708B10A7802800978481E804130BCB8
:1080C000C043C00F7047002030BC70470000000064
:1080D00000000000000000000000000007490868E0
:1080E00008B1002070470648C008C0000860054974
:1080F000C908C900091A0160704700BF5C2200204E
:108100004F190020481B002070470000841A71EBB3
:10811000030603D2001BB141121973414FF4001C36
:108120001CEB410F34BF7CEB430443E00C0DA4EB8C
:108130001356352E50DC45EAC323DB0A45EAC1213C
:10814000C912B6F120050DDD63FA05F6EB4086EAAB
:108150000305124218BF45F00105C01851F1000196
:108160000CD213E062FA06F5F2405540F3415A4052
:10817000B340F3405A408018594107D349085FEA99
:1081800030005FEA350528BF45F0010501F5801193
:10819000420875F1004250F1000041EB0451F0BC7F
:1081A0004FF4001C1CEB410F38BF70470020090D35
:1081B000090570471CEB410F10D252EA43060BD061
:1081C000BCEB410F05D80C0DAB43661E342EB5DD5C
:1081D00002E0AB4380185941F0BC7047F0BC7047D7
:1081E000704700002DE9F04F9FB000F0DDFD00F07A
:1081F000DFFE00F0D7FC00F021FF00F0C5FF01F02A
:1082000054F801F01DFB01F060F901F02DFD01F0C3
:1082100059FD01F083FD01F00BFE002400208DF8D4
:10822000050000208DF8070000208DF806000025CD
:1082300000208DF80800002604208DF808005FF06B
:10824000000900208DF8040004A80021002206C0C7
:108250000838002000F0B8FD00275FF000089DF806
:10826000040000281AD101F019FD012802D119F1EA
:10827000010901E000208146642000F01BFF5FFA45
:1082800089F9B9F11F0FEADB0020814601208DF842
:1082900004000020804600F0EFFFE0E79DF80400B6
:1082A000012834D101F011F9DFF8840801F09BF9BD
:1082B0004FF4FA6000F0FEFE02208DF80400C820A2
:1082C0000090C823DFF86C28C821002001F019FABB
:1082D00001F07CF9C8200090C823DFF85C28C82191
:1082E000002001F00EFA01F071F9C8200090C823B7
:1082F000DFF84828C821002001F08CF9C820009040
:10830000C823DFF83828C821002001F083F99DF840
:1083100004000228A3D101F0C1FC012802D119F107
:10832000010901E0002081465FFA89F9B9F1040FE3
:108330000ADB0020814600208DF8040001F0C5F81A
:1083400001F054FA012080464FF4FA7000F0B2FEBA
:108350005FFA88F8B8F1000F09D19DF804000228EF
:1083600005D104A801F0AAFD04A801F0C9FA9DF8FE
:10837000080000F03DFDDFF8C807C078002800F0D5
:10838000BA80DFF8BC07807805005FF0640ADFF888
:10839000B007406800900DF1180B524600995846FE
:1083A000FFF758F90020DFF8981788700020DFF8F1
:1083B0009017C8700E22DFF88C1706A801F0A4FDF4
:1083C000002803D101208DF805000AE00B22DFF818
:1083D000781706A801F098FD002802D100208DF83A
:1083E00005000522DFF8641706A801F08DFD0028BE
:1083F00003D103208DF80C0051E0022236A106A81B
:1084000001F082FD002803D104208DF80C0046E025
:108410000422DFF83C1706A801F076FD002803D1FE
:1084200005208DF80C003AE00722DFF8281706A88F
:1084300001F06AFD002803D106208DF80C002EE023
:108440000522DFF8141706A801F05EFD002803D10D
:1084500007208DF80C0022E00622DFF8001706A89E
:1084600001F052FD002803D108208DF80C0016E021
:108470000422DFF8EC1606A801F046FD002803D11F
:1084800009208DF80C000AE00422DFF8D81606A8AF
:1084900001F03AFD002802D10A208DF80C009DF869
:1084A000050001280BD19DF80C00002807D09DF88D
:1084B0000C000B2803DA0221C8A000F074FF28008A
:1084C000451EC0B2002809D006A8F6B2315CC4A08F
:1084D00001F02EFD761CF2E775700000002006000A
:1084E000642000905FF0000A0DF1180B52460099CD
:1084F000584601F02FFD9DF80500012840F0D78275
:108500009DF80C00032814D0C0F0A382052800F0C9
:10851000FB80C0F09080072800F0CE81C0F062811F
:10852000092800F04C82C0F01A820A2800F07782F5
:108530008FE2C8200090C823DFF8F825C82100206A
:1085400001F0DFF801F042F8C8200090C823DFF8FE
:10855000E825C821002001F0D4F801F037F82020E8
:1085600000902023DFF800266421342001F0C9F8B0
:10857000202000902023DFF8F4256421542001F00E
:10858000C0F8202000902023DFF8E4256421742027
:1085900001F0B7F801F01AF801208046012001F03F
:1085A00020FC40F6B83000F085FD012000F00CFC06
:1085B00043F6F050844210D144F2C051012000F043
:1085C00081FC4FF4FA6000F075FD4FF4FA6102206F
:1085D00000F078FC00F02FFB0FE04FF4FA6101206F
:1085E00000F070FC4FF4FA6000F064FD4FF4FA61A3
:1085F000022000F067FC00F01EFB0020040043F6A0
:10860000F051022000F05EFC43F6F05004004FF4FD
:108610007A6000F04FFD210089B2012000F052FC89
:1086200000F009FB00200400002001F0DAFB00202C
:1086300000F0CAFB0DE2C8200090C823DFF8F42444
:10864000C821002001F05DF800F0C0FFC8200090B4
:10865000C823DFF8E424C821002001F052F800F01C
:10866000B5FF202000902023DFF808256421142086
:1086700001F047F8202000902023DFF8FC2464213B
:10868000342001F03EF8202000902023DFF8EC2475
:108690006421542001F035F8202000902023DFF8D9
:1086A000E0246421742001F02CF820200090202385
:1086B000DFF8BC246421942001F023F800F086FF49
:1086C00001208046012001F08CFB40F6B83000F01C
:1086D000F1FC012000F078FB43F6F050844208D111
:1086E00043F6F051012000F0EDFB00F0A4FA002069
:1086F0000400002001F075FB4FF4FA6000F0DAFC92
:10870000002000F061FBA4E1C8200090C823DFF83E
:108710002424C821002000F0F4FF00F057FFC820F7
:108720000090C823DFF81024C821002000F0E9FFE2
:1087300000F04CFF202000902023DFF83824642133
:10874000142000F0DEFF202000902023DFF83424E6
:108750006421342000F0D5FF202000902023DFF892
:108760001C246421542000F0CCFF20200090202302
:10877000DFF80C246421742000F0C3FF2020009057
:108780002023DFF8EC236421942000F0BAFF00F0EE
:108790001DFF01208046012001F023FB40F6B83088
:1087A00000F088FC012000F00FFB002C0BD100F042
:1087B00042FA0020040043F6F051022000F082FB50
:1087C00043F6F0500400002001F00BFB4FF4FA6078
:1087D00000F070FC002000F0F7FA3AE14F4B000087
:1087E00025630000C8200090C823D24AC821002079
:1087F00000F087FF00F0EAFEC8200090C823CE4AB0
:10880000C821002000F07DFF00F0E0FEC8200090AD
:10881000C823DD4AC821002000F0FCFE012080466C
:10882000FFB20A2F45DA4FF47A7000F043FCC448D7
:10883000C0780028F4D0C248807805005FF0640A50
:10884000BF48406800900DF1180B524600995846F9
:10885000FEF700FF0020BA4988700020B849C870B0
:108860000722BC4906A801F04FFB002805D10221D0
:10887000ADA000F098FD0A2007002800451EC0B2F8
:10888000002807D006A8F6B2315CA8A001F050FB82
:10889000761CF2E700200600642000905FF0000ADA
:1088A0000DF1180B52460099584601F053FB7F1CFE
:1088B000B6E700200700CCE0C8200090C8239D4AFE
:1088C000C821002000F01DFF00F080FEC8200090AD
:1088D000C823994AC821002000F013FF00F076FE5B
:1088E000202000902023A94A6421442000F009FFA1
:1088F000202000902023A64A6421642000F001FF7C
:1089000000F064FE012001F06CFA40F6B83000F08F
:10891000D1FB01208046012000F056FA43F6F050CA
:10892000844209D143F6F051012000F0CBFA00F067
:1089300082F90020040005E0002C03D100F07BF94F
:1089400000200400002001F04CFA002004004FF445
:10895000FA6000F0AFFB002000F036FA79E0C820A2
:108960000090C823734AC821002000F0CAFE00F01E
:108970002DFEC8200090C8236F4AC821002000F0B7
:10898000C0FE00F023FE202000902023814A6421B5
:10899000442000F0B6FE2020009020237E4A64216F
:1089A000642000F0AEFE00F011FE012080460120A0
:1089B00001F017FA40F6B83000F07CFB49E0C8201F
:1089C0000090C8235B4AC821002000F09AFE00F006
:1089D000FDFDC8200090C823574AC821002000F0A0
:1089E00090FE00F0F3FD202000902023624A6421D5
:1089F000442000F086FE202000902023664A642157
:108A0000642000F07EFE00F0E1FD012080460020A1
:108A100001F0E7F940F6B83000F04CFB19E09DF8A2
:108A20000600401C8DF806009DF80600022802DBB7
:108A300000208DF806009DF80600002804D11B21B7
:108A4000564800F0B0FC03E00E21554800F0ABFCA6
:108A5000FFE700208DF80C005FFA88F8B8F1010FED
:108A600025D1C8200090C823324AC821002000F038
:108A700048FE00F0ABFDC8200090C8232E4AC82154
:108A8000002000F03EFE00F0A1FDC8200090C823A9
:108A90002A4AC821002000F0BDFDC8200090C8234C
:108AA000264AC821002000F0B5FD002080469DF830
:108AB000050000282BD19DF80700012827D10020B0
:108AC0008DF80C0004A801F0F9F9C8200090C82323
:108AD000194AC821002000F09DFDC8200090C8233D
:108AE000144AC821002000F095FDC8200090C8233A
:108AF000124AC821002000F08DFDC8200090C82334
:108B00000E4AC821002000F085FD002080469DF817
:108B100007009DF8051088423FF4A1AB9DF80500C1
:108B20008DF80700FFF79BBB4F4B0000256300004B
:108B300040280008C83B0008504F0008B81400083F
:108B40004822002034F1000884F10008ACF100084C
:108B5000B4F10008BCF10008C4F10008CCF1000831
:108B6000D4F10008DCF100089CE600081CE70008CE
:108B70009CE700081CE800089CE800089CE9000845
:108B80001CEA00081CE90008300100089CEB000802
:108B90001CEC00081CEB00089CEA0008D007002031
:108BA000EC07002000B595B00BA8282101F006FACB
:108BB0006846142101F002FA05A8182101F0FEF917
:108BC0000A200B9001200F9010201090012011908E
:108BD00002201290002013905FF4201014900BA834
:108BE00001F0F0F9002801D000F024F80F200090E7
:108BF00002200190002002904FF48060039000203A
:108C000004900121684601F008FC002801D000F022
:108C100011F8112005904FF4007006905FF4800069
:108C20000A9005A801F046FD002801D000F002F8E6
:108C300015B000BD7047F8B50124002500260027B7
:108C40004FF47A700600042005002800C0B200F03E
:108C5000CFF801F051F80700FFB2002F18D1012022
:108C600004002000C0B200F005F901F045F800282A
:108C70002AD1002000F012F9B6B2300000F042FA1A
:108C8000012000F00BF9B6B2300000F03BFAECE73F
:108C9000FFB2012F18D1022004002000C0B200F062
:108CA000E9F801F029F801280ED1002000F0F6F8CB
:108CB000B6B2300000F026FA012000F0EFF8B6B2AC
:108CC000300000F01FFAECE7F1BD000000B585B000
:108CD000DFF8C802006850F00800DFF8C012086032
:108CE000DFF8B802006810F0080000900098DFF884
:108CF000AC02006850F01000DFF8A0120860DFF846
:108D00009C02006810F0100000900098DFF88C02C0
:108D1000006850F02000DFF884120860DFF87C0261
:108D2000006810F020000090009800224FF4E051FD
:108D3000DFF86C0201F063FF00220421DFF8640217
:108D400001F05DFF00221821DFF85C0201F057FFFF
:108D500001220621DFF8500201F051FF4FF4E050EC
:108D6000019001200290002003900320049001A9AB
:108D7000DFF82C0201F0CCFD0420019001200290CC
:108D8000002003900320049001A9DFF8180201F0ED
:108D9000BFFD3E2001900120039001A9DFF80802E9
:108DA00001F0B6FD05B000BD80B5FFF78FFF0122D1
:108DB0000421DFF8F00101F022FF01220821DFF891
:108DC000E80101F01CFF01BD10B50400E4B2002C65
:108DD00005D100220421734801F011FF07E0E4B23D
:108DE000012C04D1012204216E4801F008FF10BDBE
:108DF00010B50400E4B2002C06D0022C18D00AD31F
:108E0000042C2FD021D334E000224FF4E0516448E9
:108E100001F0F5FE2DE001224FF48051604801F091
:108E2000EEFE00224FF440615D4801F0E8FE20E0D4
:108E300001224FF400615A4801F0E1FE00224FF494
:108E4000A051574801F0DBFE13E000224FF480618F
:108E5000534801F0D4FE01224FF4C051504801F0B4
:108E6000CEFE06E001224FF4E0514D4801F0C7FE6E
:108E7000FFE710BD10B50400E4B2012C05D10022BB
:108E80001021494801F0BBFE07E0E4B2022C04D1F6
:108E900001221021444801F0B2FE10BD10B50400BB
:108EA000E4B2002C05D1002220213F4801F0A7FEAA
:108EB00007E0E4B2012C04D1012220213A4801F05C
:108EC0009EFE10BD2DE9F84F04000D00002600277E
:108ED0005FF000085FF000095FF0000A5FF0000B30
:108EE000A8464FF47A7081464FF47A708246B8EB08
:108EF0000A00B0EB0A008346E4B2012C03D1012042
:108F0000FFF7B8FF05E0E4B2022C02D10220FFF720
:108F1000B1FF0020060036B21FFA88F846453BDA5A
:108F200036B21FFA89F94E4505DA204836B230F8D4
:108F30001600070020E036B21FFA89F94E4508DB1B
:108F40001FFA89F91FFA8BFB1BEB090036B2B042FE
:108F500012DA1FFA89F91FFA8BFB1BEB090036B2F4
:108F6000B04209DA11481FFA88F836B2B8EB0601A8
:108F700010EB4100408807000020FFF78FFFBFB2D1
:108F8000380000F0BFF80120FFF788FFBFB23800BB
:108F900000F0B8F8761CBEE7BDE8F18F181002406B
:108FA0000010014000140140000C014000000020AE
:108FB00080B51D48006850F010001B490860032070
:108FC00001F0B4FE002000F004F801F0E5FE0020FE
:108FD00002BD10B504004FF47A7014490978B0FB53
:108FE000F1F013490968B1FBF0F001F0BFFE002871
:108FF00001D001200CE0102C09D2002221005FF0EA
:10900000FF3001F099FE0B480460002000E00120D1
:1090100010BD094800680549097808180649086024
:109020007047054800687047002002404009002052
:1090300000080020FC0700205822002000B583B063
:109040004A48D0E90023CDE900234948494908604E
:109050000020484948600020464988600020454972
:10906000C860002043498861424802F065F800204A
:1090700000900020019069463E4802F06BFB3E489C
:109080003E49086000203D49486000203B49886017
:1090900000203A49C860002038498861374802F00A
:1090A0004BF800200090002001906946334802F000
:1090B00051FB07BD10B504004BF67F302D494860C9
:1090C000601E2C49C8602E492A48006802F0FFF94A
:1090D00000202849096848627FF001002549096895
:1090E0000861244802F044F8224800680069C0077B
:1090F000FAD5204802F04BF87FF001001D490968BD
:10910000086110BD10B504002F201A494860601E88
:109110001849C8601A491748006802F0D8F90020B9
:109120001449096848627FF0010012490968086122
:10913000104802F01DF80F4800680069C007FAD512
:109140000C4802F024F87FF001000A490968086120
:1091500010BD80B5094802F07BF801BD0168064AE0
:10916000914202D10121074A117070479CF1000819
:1091700000100040B420002000140040F420002023
:10918000B82000206222002080B5354835490860AB
:109190005FF4E130334948600020324988600020A4
:1091A0003049C86000202F4908610C202D494861D2
:1091B00000202C49886100202A49C861294802F012
:1091C000F9FA01222849274802F09EFB01BD0168F7
:1091D000234A91421AD12549098851F44041234A32
:1091E000118022490978C90703D500211F4A11803F
:1091F00004E01E490988491C1C4A11801A49097853
:109200001B4A1A4B1B889B049B0C9954704710B542
:109210000024144802F0B0FB00200400114802F0C2
:1092200050FC202804D0641C40F6B9308442F5D3A9
:109230000020040001220C490A4802F065FB0028C6
:1092400004D0641C40F6B9308442F3D310BD044A04
:1092500012685206FBD50200D2B2064B1A60704764
:1092600000480040B421002063220020602200203A
:10927000F42100200448004070B564240025694EA4
:109280002A002100300000F065FE002066490870C9
:1092900000206549487000206349C8700020624979
:1092A000887060486049486070BD00B585B001A80D
:1092B000102100F083FE5D48006850F010005B490B
:1092C00008605A48006810F0100000900098802054
:1092D0000190574802900120039001A9554801F0E0
:1092E00017FB00220121172001F026FD172001F0B5
:1092F00036FD4FF440700190012002900020039051
:109300000220049001A94B4801F002FB4A484B4956
:1093100008605FF47A304949486000204749886016
:1093200000204649C8600020444908610C20434998
:10933000486100204149886100204049C8613F4898
:1093400002F038FA01224FF480713A4801F057FCDC
:109350003A480068C06850F4005038490968C8604D
:1093600036480068C06850F0200034490968C86079
:1093700032480068C06830F0800030490968C86031
:10938000FFF77AFF7FF040002C490968086005B0BC
:1093900000BD10B504002200D2B24FF40071254880
:1093A00001F02DFC10BD38B504000D004FF47A73A8
:1093B0002A0092B22100214802F037FA31BD1F483D
:1093C00000680068800620D51C480068C0688006D8
:1093D0001BD57FF02000194909680860184800680B
:1093E00011494968104A927850540F488078401CBF
:1093F0000D49887001200C49C8700B488078401CCA
:10940000632802DB002008498870704780B50D484A
:109410000068000605D580200A4908600020FFF793
:10942000B8FF01BDA81F00204822002018100240EC
:1094300000002110001001400038014034210020BC
:1094400004380140140401400021002200231A00C6
:10945000824208D200231900B1F5205F01D2491CD5
:10946000FAE7521CF4E7704710B582B004008DF89B
:1094700000404FF47A7301226946DFF8CC0702F00E
:10948000EFFC13BD80B50221DFF8C00701F0ABFB94
:109490000028F8D101BD10B5040000220821DFF832
:1094A000AC0701F0ACFB2000C0B2FFF7DDFF10BD40
:1094B00010B5040001220821DFF8900701F09FFB9E
:1094C0002000C0B2FFF7D0FF10BD80B500220421FC
:1094D000DFF8780701F093FB6420FFF7B5FF012266
:1094E0000421DFF8680701F08AFB6420FFF7ACFF76
:1094F000FFF7C8FF1220FFF7CEFFFFF7C3FF0022E0
:109500001021DFF8480701F07AFB6420FFF79CFF89
:109510000120FFF7C0FFC720FFF7CAFF0020FFF7B9
:10952000C7FF0020FFF7C4FF1120FFF7B4FF0120A1
:10953000FFF7BEFF4420FFF7AEFF0020FFF7B8FFA4
:109540001820FFF7B5FF4520FFF7A5FFC720FFF75D
:10955000AFFF0020FFF7ACFF0020FFF7A9FF0020BE
:10956000FFF7A6FF3C20FFF796FF0120FFF7A0FFC3
:109570001820FFF790FF8020FFF79AFF2220FFF7C7
:109580008AFFB120FFF794FF2020FFF784FF4E20D1
:10959000FFF781FF0020FFF78BFF4F20FFF77BFFD6
:1095A000C720FFF785FF0020FFF782FFFFF76AFF64
:1095B00001BD80B52220FFF76EFFF720FFF778FF8F
:1095C0002020FFF768FFFFF75DFF01BD80B5222077
:1095D000FFF761FFFF20FFF76BFF2020FFF75BFF26
:1095E000FFF750FF01BD10B504002420FFF753FF23
:1095F00001220821DFF8540601F001FB40F6B833E0
:1096000041F288322100DFF8400602F029FCFFF722
:10961000D0FF10BD2DE9F04F83B081460C0015003E
:109620001E000C9F5FEAD90919EBD700401E01907C
:1096300000208046A246FF2C09D95FEA1A20804606
:109640004FF480715046B0FBF1FA0AFB110A00207A
:1096500000903019401E8346BBF1FF0F09D95FEA25
:109660001B2000904FF480715846B0FBF1FB0BFBC0
:10967000110B4420FFF70FFF4846C0B2FFF718FF59
:109680000198C0B2FFF714FF4520FFF704FF5046D2
:10969000C0B2FFF70DFF4046C0B2FFF709FF5846C2
:1096A000C0B2FFF705FF0098C0B2FFF701FF4E20E0
:1096B000FFF7F1FE4846C0B2FFF7FAFE4F20FFF772
:1096C000EAFE5046C0B2FFF7F3FE4046C0B2FFF7D5
:1096D000EFFE2420FFF7DFFE01220821DFF86C05F2
:1096E00001F08DFA40F6B83307FB06F0C20892B2DB
:1096F0002900DFF8540502F0B3FBFFF767FFBDE870
:10970000F78F2DE9F04F83B081460C0015001E0045
:109710000C9F5FEAD90919EBD700401E0190002089
:109720008046A246FF2C09D95FEA1A2080464FF4F2
:1097300080715046B0FBF1FA0AFB110A002000903C
:109740003019401E8346BBF1FF0F09D95FEA1B2089
:1097500000904FF480715846B0FBF1FB0BFB110BEE
:109760004420FFF798FE4846C0B2FFF7A1FE0198DB
:10977000C0B2FFF79DFE4520FFF78DFE5046C0B2F8
:10978000FFF796FE4046C0B2FFF792FE5846C0B2C1
:10979000FFF78EFE0098C0B2FFF78AFE4E20FFF75B
:1097A0007AFE4846C0B2FFF783FE4F20FFF773FEF4
:1097B0005046C0B2FFF77CFE4046C0B2FFF778FECD
:1097C0002420FFF768FE01220821DFF8800401F061
:1097D00016FA40F6B83307FB06F0C20892B2290029
:1097E000DFF8640402F03CFBBDE8F78F80B524206D
:1097F000FFF751FE01220821DFF8500401F0FFF9C4
:1098000040F6B83341F28832DFF84414DFF8380408
:1098100002F026FB2620FFF73EFE01220821DFF89A
:109820002C0401F0ECF940F6B83341F28832DFF84D
:109830002014DFF8140402F013FBFFF7BAFE01BD99
:1098400000B585B0DFF80C04006850F00400DFF8C4
:1098500004140860DFF8FC03006810F004000090B6
:1098600000981C2001900320049001200290002009
:10987000039001A9DFF8D40301F04AF80220019017
:1098800003200490002002900220039001A9DFF839
:10989000BC0301F03DF8DFF8C003DFF8AC1308604B
:1098A0004FF48270E84948600020E7498860002052
:1098B000E549C8600020E44908610020E2494861A8
:1098C0004FF40070E04988610020DF49C861002042
:1098D000DD4908620020DC4948620020DA498862DC
:1098E0000720D949C862D84802F0FEFBD648006874
:1098F000006850F04000D4490968086005B000BD18
:109900002DE9F04182B00400002500265FF0000838
:10991000002714200700FFB20A2097FBF0F0050093
:10992000FFB20A2097FBF0F100FB11700600002047
:109930008046102000902023C848EDB2402101FB52
:109940000502C8215FFA88F85FEA08101430FFF7B3
:10995000D8FE18F10108102000902023BF48F6B26D
:10996000402101FB0602C8215FFA88F85FEA08106F
:109970001430FFF7C6FE20780700FFB20A2097FBDD
:10998000F0F00500FFB20A2097FBF0F100FB117028
:10999000060018F10108102000902023AF48EDB216
:1099A000402101FB0502C8215FFA88F85FEA081030
:1099B0001430FFF7A6FE18F10108102000902023B4
:1099C000A648F6B2402101FB0602C8215FFA88F8DA
:1099D0005FEA08101430FFF794FE18F10108102018
:1099E000009020239E4AC8215FFA88F85FEA081099
:1099F0001430FFF786FE60780700FFB20A2097FB5D
:109A0000F0F00500FFB20A2097FBF0F100FB1170A7
:109A1000060018F101081020009020238F48EDB2B5
:109A2000402101FB0502C8215FFA88F85FEA0810AF
:109A30001430FFF766FE18F1010810200090202373
:109A40008648F6B2402101FB0602C8215FFA88F879
:109A50005FEA08101430FFF754FE18F101081020D7
:109A6000009020237E4AC8215FFA88F85FEA081038
:109A70001430FFF746FEA0780700FFB20A2097FBDC
:109A8000F0F00500FFB20A2097FBF0F100FB117027
:109A9000060018F101081020009020236F48EDB255
:109AA000402101FB0502C8215FFA88F85FEA08102F
:109AB0001430FFF726FE18F1010810200090202333
:109AC0006648F6B2402101FB0602C8215FFA88F819
:109AD0005FEA08101430FFF714FEE0780700FFB2C9
:109AE0000A2097FBF0F00500FFB20A2097FBF0F187
:109AF00000FB1170060000208046102000902023FB
:109B00005648EDB2402101FB050288215FFA88F832
:109B10005FEA08102430FFF7F4FD18F10108102067
:109B2000009020234D48F6B2402101FB0602882117
:109B30005FFA88F85FEA08102430FFF7E2FD18F1B9
:109B40000108102000902023464A88215FFA88F8F7
:109B50005FEA08102430FFF7D4FD20790700FFB238
:109B60000A2097FBF0F00500FFB20A2097FBF0F106
:109B700000FB1170060018F101081020009020234E
:109B80003648EDB2402101FB050288215FFA88F8D2
:109B90005FEA08102430FFF7B4FD18F10108102027
:109BA000009020232D48F6B2402101FB06028821B7
:109BB0005FFA88F85FEA08102430FFF7A2FD18F179
:109BC0000108102000902023264A88215FFA88F897
:109BD0005FEA08102430FFF794FD60790700FFB2B8
:109BE0000A2097FBF0F00500FFB20A2097FBF0F186
:109BF00000FB1170060018F10108102000902023CE
:109C00001648EDB2402101FB050288215FFA88F871
:109C10005FEA08102430FFF774FD18F101081020E6
:109C2000009020230D48F6B2402101FB0602882156
:109C30005FFA88F85FEA08102430FFF762FDFFF74B
:109C4000C5FCBDE8F38100000C20002000080140A5
:109C5000C83B000818100240003001409CEC00088E
:109C60001CEF00085CEF000800B585B013480068E1
:109C700050F01000114908601048006810F0100002
:109C80000090009820200190002002900220039074
:109C900001A90B4800F03CFE05B000BD10B5002442
:109CA0002021074800F09FFF012802D10120040075
:109CB00001E0002004002000C0B210BD18100240D6
:109CC0000010014000B585B01248006850F0100047
:109CD000104908600F48006810F0100000900098CC
:109CE00008200190002002900020039001A90A485A
:109CF00000F00EFE05B000BD10B500240821064896
:109D000000F071FF012801D1012004002000C0B241
:109D100010BD0000181002400010014000B58FB0C7
:109D20003D48D0E90023CDE9012307A81C2100F01C
:109D300045F93A48006850F0100038490860374843
:109D4000006810F01000009000983549096808007C
:109D500030F4406050F0E06050F4406030490860FA
